{
  "contractName": "DaD",
  "abi": [
    {
      "inputs": [
        {
          "internalType": "address",
          "name": "_VRFCoordinator",
          "type": "address"
        },
        {
          "internalType": "address",
          "name": "_LinkToken",
          "type": "address"
        },
        {
          "internalType": "bytes32",
          "name": "_keyhash",
          "type": "bytes32"
        }
      ],
      "stateMutability": "nonpayable",
      "type": "constructor"
    },
    {
      "anonymous": false,
      "inputs": [
        {
          "indexed": true,
          "internalType": "address",
          "name": "owner",
          "type": "address"
        },
        {
          "indexed": true,
          "internalType": "address",
          "name": "approved",
          "type": "address"
        },
        {
          "indexed": true,
          "internalType": "uint256",
          "name": "tokenId",
          "type": "uint256"
        }
      ],
      "name": "Approval",
      "type": "event"
    },
    {
      "anonymous": false,
      "inputs": [
        {
          "indexed": true,
          "internalType": "address",
          "name": "owner",
          "type": "address"
        },
        {
          "indexed": true,
          "internalType": "address",
          "name": "operator",
          "type": "address"
        },
        {
          "indexed": false,
          "internalType": "bool",
          "name": "approved",
          "type": "bool"
        }
      ],
      "name": "ApprovalForAll",
      "type": "event"
    },
    {
      "anonymous": false,
      "inputs": [
        {
          "indexed": true,
          "internalType": "address",
          "name": "previousOwner",
          "type": "address"
        },
        {
          "indexed": true,
          "internalType": "address",
          "name": "newOwner",
          "type": "address"
        }
      ],
      "name": "OwnershipTransferred",
      "type": "event"
    },
    {
      "anonymous": false,
      "inputs": [
        {
          "indexed": true,
          "internalType": "address",
          "name": "from",
          "type": "address"
        },
        {
          "indexed": true,
          "internalType": "address",
          "name": "to",
          "type": "address"
        },
        {
          "indexed": true,
          "internalType": "uint256",
          "name": "tokenId",
          "type": "uint256"
        }
      ],
      "name": "Transfer",
      "type": "event"
    },
    {
      "inputs": [],
      "name": "LinkToken",
      "outputs": [
        {
          "internalType": "address",
          "name": "",
          "type": "address"
        }
      ],
      "stateMutability": "view",
      "type": "function",
      "constant": true
    },
    {
      "inputs": [],
      "name": "VRFCoordinator",
      "outputs": [
        {
          "internalType": "address",
          "name": "",
          "type": "address"
        }
      ],
      "stateMutability": "view",
      "type": "function",
      "constant": true
    },
    {
      "inputs": [
        {
          "internalType": "address",
          "name": "to",
          "type": "address"
        },
        {
          "internalType": "uint256",
          "name": "tokenId",
          "type": "uint256"
        }
      ],
      "name": "approve",
      "outputs": [],
      "stateMutability": "nonpayable",
      "type": "function"
    },
    {
      "inputs": [
        {
          "internalType": "address",
          "name": "owner",
          "type": "address"
        }
      ],
      "name": "balanceOf",
      "outputs": [
        {
          "internalType": "uint256",
          "name": "",
          "type": "uint256"
        }
      ],
      "stateMutability": "view",
      "type": "function",
      "constant": true
    },
    {
      "inputs": [],
      "name": "baseURI",
      "outputs": [
        {
          "internalType": "string",
          "name": "",
          "type": "string"
        }
      ],
      "stateMutability": "view",
      "type": "function",
      "constant": true
    },
    {
      "inputs": [
        {
          "internalType": "uint256",
          "name": "",
          "type": "uint256"
        }
      ],
      "name": "characters",
      "outputs": [
        {
          "internalType": "uint256",
          "name": "strength",
          "type": "uint256"
        },
        {
          "internalType": "uint256",
          "name": "dexterity",
          "type": "uint256"
        },
        {
          "internalType": "uint256",
          "name": "constitution",
          "type": "uint256"
        },
        {
          "internalType": "uint256",
          "name": "intelligence",
          "type": "uint256"
        },
        {
          "internalType": "uint256",
          "name": "wisdom",
          "type": "uint256"
        },
        {
          "internalType": "uint256",
          "name": "charisma",
          "type": "uint256"
        },
        {
          "internalType": "uint256",
          "name": "experience",
          "type": "uint256"
        },
        {
          "internalType": "string",
          "name": "name",
          "type": "string"
        }
      ],
      "stateMutability": "view",
      "type": "function",
      "constant": true
    },
    {
      "inputs": [
        {
          "internalType": "uint256",
          "name": "tokenId",
          "type": "uint256"
        }
      ],
      "name": "getApproved",
      "outputs": [
        {
          "internalType": "address",
          "name": "",
          "type": "address"
        }
      ],
      "stateMutability": "view",
      "type": "function",
      "constant": true
    },
    {
      "inputs": [
        {
          "internalType": "address",
          "name": "owner",
          "type": "address"
        },
        {
          "internalType": "address",
          "name": "operator",
          "type": "address"
        }
      ],
      "name": "isApprovedForAll",
      "outputs": [
        {
          "internalType": "bool",
          "name": "",
          "type": "bool"
        }
      ],
      "stateMutability": "view",
      "type": "function",
      "constant": true
    },
    {
      "inputs": [],
      "name": "name",
      "outputs": [
        {
          "internalType": "string",
          "name": "",
          "type": "string"
        }
      ],
      "stateMutability": "view",
      "type": "function",
      "constant": true
    },
    {
      "inputs": [
        {
          "internalType": "bytes32",
          "name": "",
          "type": "bytes32"
        }
      ],
      "name": "nonces",
      "outputs": [
        {
          "internalType": "uint256",
          "name": "",
          "type": "uint256"
        }
      ],
      "stateMutability": "view",
      "type": "function",
      "constant": true
    },
    {
      "inputs": [],
      "name": "owner",
      "outputs": [
        {
          "internalType": "address",
          "name": "",
          "type": "address"
        }
      ],
      "stateMutability": "view",
      "type": "function",
      "constant": true
    },
    {
      "inputs": [
        {
          "internalType": "uint256",
          "name": "tokenId",
          "type": "uint256"
        }
      ],
      "name": "ownerOf",
      "outputs": [
        {
          "internalType": "address",
          "name": "",
          "type": "address"
        }
      ],
      "stateMutability": "view",
      "type": "function",
      "constant": true
    },
    {
      "inputs": [],
      "name": "randomResult",
      "outputs": [
        {
          "internalType": "uint256",
          "name": "",
          "type": "uint256"
        }
      ],
      "stateMutability": "view",
      "type": "function",
      "constant": true
    },
    {
      "inputs": [
        {
          "internalType": "bytes32",
          "name": "requestId",
          "type": "bytes32"
        },
        {
          "internalType": "uint256",
          "name": "randomness",
          "type": "uint256"
        }
      ],
      "name": "rawFulfillRandomness",
      "outputs": [],
      "stateMutability": "nonpayable",
      "type": "function"
    },
    {
      "inputs": [],
      "name": "renounceOwnership",
      "outputs": [],
      "stateMutability": "nonpayable",
      "type": "function"
    },
    {
      "inputs": [
        {
          "internalType": "bytes32",
          "name": "_keyHash",
          "type": "bytes32"
        },
        {
          "internalType": "uint256",
          "name": "_fee",
          "type": "uint256"
        },
        {
          "internalType": "uint256",
          "name": "_seed",
          "type": "uint256"
        }
      ],
      "name": "requestRandomness",
      "outputs": [
        {
          "internalType": "bytes32",
          "name": "requestId",
          "type": "bytes32"
        }
      ],
      "stateMutability": "nonpayable",
      "type": "function"
    },
    {
      "inputs": [
        {
          "internalType": "address",
          "name": "from",
          "type": "address"
        },
        {
          "internalType": "address",
          "name": "to",
          "type": "address"
        },
        {
          "internalType": "uint256",
          "name": "tokenId",
          "type": "uint256"
        }
      ],
      "name": "safeTransferFrom",
      "outputs": [],
      "stateMutability": "nonpayable",
      "type": "function"
    },
    {
      "inputs": [
        {
          "internalType": "address",
          "name": "from",
          "type": "address"
        },
        {
          "internalType": "address",
          "name": "to",
          "type": "address"
        },
        {
          "internalType": "uint256",
          "name": "tokenId",
          "type": "uint256"
        },
        {
          "internalType": "bytes",
          "name": "_data",
          "type": "bytes"
        }
      ],
      "name": "safeTransferFrom",
      "outputs": [],
      "stateMutability": "nonpayable",
      "type": "function"
    },
    {
      "inputs": [
        {
          "internalType": "address",
          "name": "operator",
          "type": "address"
        },
        {
          "internalType": "bool",
          "name": "approved",
          "type": "bool"
        }
      ],
      "name": "setApprovalForAll",
      "outputs": [],
      "stateMutability": "nonpayable",
      "type": "function"
    },
    {
      "inputs": [
        {
          "internalType": "bytes4",
          "name": "interfaceId",
          "type": "bytes4"
        }
      ],
      "name": "supportsInterface",
      "outputs": [
        {
          "internalType": "bool",
          "name": "",
          "type": "bool"
        }
      ],
      "stateMutability": "view",
      "type": "function",
      "constant": true
    },
    {
      "inputs": [],
      "name": "symbol",
      "outputs": [
        {
          "internalType": "string",
          "name": "",
          "type": "string"
        }
      ],
      "stateMutability": "view",
      "type": "function",
      "constant": true
    },
    {
      "inputs": [
        {
          "internalType": "uint256",
          "name": "index",
          "type": "uint256"
        }
      ],
      "name": "tokenByIndex",
      "outputs": [
        {
          "internalType": "uint256",
          "name": "",
          "type": "uint256"
        }
      ],
      "stateMutability": "view",
      "type": "function",
      "constant": true
    },
    {
      "inputs": [
        {
          "internalType": "address",
          "name": "owner",
          "type": "address"
        },
        {
          "internalType": "uint256",
          "name": "index",
          "type": "uint256"
        }
      ],
      "name": "tokenOfOwnerByIndex",
      "outputs": [
        {
          "internalType": "uint256",
          "name": "",
          "type": "uint256"
        }
      ],
      "stateMutability": "view",
      "type": "function",
      "constant": true
    },
    {
      "inputs": [
        {
          "internalType": "uint256",
          "name": "tokenId",
          "type": "uint256"
        }
      ],
      "name": "tokenURI",
      "outputs": [
        {
          "internalType": "string",
          "name": "",
          "type": "string"
        }
      ],
      "stateMutability": "view",
      "type": "function",
      "constant": true
    },
    {
      "inputs": [],
      "name": "totalSupply",
      "outputs": [
        {
          "internalType": "uint256",
          "name": "",
          "type": "uint256"
        }
      ],
      "stateMutability": "view",
      "type": "function",
      "constant": true
    },
    {
      "inputs": [
        {
          "internalType": "address",
          "name": "from",
          "type": "address"
        },
        {
          "internalType": "address",
          "name": "to",
          "type": "address"
        },
        {
          "internalType": "uint256",
          "name": "tokenId",
          "type": "uint256"
        }
      ],
      "name": "transferFrom",
      "outputs": [],
      "stateMutability": "nonpayable",
      "type": "function"
    },
    {
      "inputs": [
        {
          "internalType": "address",
          "name": "newOwner",
          "type": "address"
        }
      ],
      "name": "transferOwnership",
      "outputs": [],
      "stateMutability": "nonpayable",
      "type": "function"
    },
    {
      "inputs": [
        {
          "internalType": "uint256",
          "name": "userProvidedSeed",
          "type": "uint256"
        },
        {
          "internalType": "string",
          "name": "name",
          "type": "string"
        }
      ],
      "name": "requestNewRandomCharacter",
      "outputs": [
        {
          "internalType": "bytes32",
          "name": "",
          "type": "bytes32"
        }
      ],
      "stateMutability": "nonpayable",
      "type": "function"
    },
    {
      "inputs": [
        {
          "internalType": "uint256",
          "name": "tokenId",
          "type": "uint256"
        }
      ],
      "name": "getTokenURI",
      "outputs": [
        {
          "internalType": "string",
          "name": "",
          "type": "string"
        }
      ],
      "stateMutability": "view",
      "type": "function",
      "constant": true
    },
    {
      "inputs": [
        {
          "internalType": "uint256",
          "name": "tokenId",
          "type": "uint256"
        },
        {
          "internalType": "string",
          "name": "_tokenURI",
          "type": "string"
        }
      ],
      "name": "setTokenURI",
      "outputs": [],
      "stateMutability": "nonpayable",
      "type": "function"
    },
    {
      "inputs": [
        {
          "internalType": "uint256",
          "name": "tokenId",
          "type": "uint256"
        }
      ],
      "name": "getLevel",
      "outputs": [
        {
          "internalType": "uint256",
          "name": "",
          "type": "uint256"
        }
      ],
      "stateMutability": "view",
      "type": "function",
      "constant": true
    },
    {
      "inputs": [],
      "name": "getNumberOfCharacters",
      "outputs": [
        {
          "internalType": "uint256",
          "name": "",
          "type": "uint256"
        }
      ],
      "stateMutability": "view",
      "type": "function",
      "constant": true
    },
    {
      "inputs": [
        {
          "internalType": "uint256",
          "name": "tokenId",
          "type": "uint256"
        }
      ],
      "name": "getCharacterOverView",
      "outputs": [
        {
          "internalType": "string",
          "name": "",
          "type": "string"
        },
        {
          "internalType": "uint256",
          "name": "",
          "type": "uint256"
        },
        {
          "internalType": "uint256",
          "name": "",
          "type": "uint256"
        },
        {
          "internalType": "uint256",
          "name": "",
          "type": "uint256"
        }
      ],
      "stateMutability": "view",
      "type": "function",
      "constant": true
    },
    {
      "inputs": [
        {
          "internalType": "uint256",
          "name": "tokenId",
          "type": "uint256"
        }
      ],
      "name": "getCharacterStats",
      "outputs": [
        {
          "internalType": "uint256",
          "name": "",
          "type": "uint256"
        },
        {
          "internalType": "uint256",
          "name": "",
          "type": "uint256"
        },
        {
          "internalType": "uint256",
          "name": "",
          "type": "uint256"
        },
        {
          "internalType": "uint256",
          "name": "",
          "type": "uint256"
        },
        {
          "internalType": "uint256",
          "name": "",
          "type": "uint256"
        },
        {
          "internalType": "uint256",
          "name": "",
          "type": "uint256"
        },
        {
          "internalType": "uint256",
          "name": "",
          "type": "uint256"
        }
      ],
      "stateMutability": "view",
      "type": "function",
      "constant": true
    }
  ],
  "bytecode": "0x60806040523480156200001157600080fd5b506040516200497138038062004971833981810160405260608110156200003757600080fd5b8101908080519060200190929190805190602001909291908051906020019092919050505082826040518060400160405280600381526020017f44614400000000000000000000000000000000000000000000000000000000008152506040518060400160405280600281526020017f4747000000000000000000000000000000000000000000000000000000000000815250620000e26301ffc9a760e01b6200033460201b60201c565b8160069080519060200190620000fa92919062000445565b5080600790805190602001906200011392919062000445565b506200012c6380ac58cd60e01b6200033460201b60201c565b62000144635b5e139f60e01b6200033460201b60201c565b6200015c63780e9d6360e01b6200033460201b60201c565b505081600b60006101000a81548173ffffffffffffffffffffffffffffffffffffffff021916908373ffffffffffffffffffffffffffffffffffffffff16021790555080600a60006101000a81548173ffffffffffffffffffffffffffffffffffffffff021916908373ffffffffffffffffffffffffffffffffffffffff16021790555050506000620001f46200043d60201b60201c565b905080600d60006101000a81548173ffffffffffffffffffffffffffffffffffffffff021916908373ffffffffffffffffffffffffffffffffffffffff1602179055508073ffffffffffffffffffffffffffffffffffffffff16600073ffffffffffffffffffffffffffffffffffffffff167f8be0079c531659141344cd1fd0a4f28419497f9722a3daafe3b4186f6b6457e060405160405180910390a35082601160006101000a81548173ffffffffffffffffffffffffffffffffffffffff021916908373ffffffffffffffffffffffffffffffffffffffff16021790555081601260006101000a81548173ffffffffffffffffffffffffffffffffffffffff021916908373ffffffffffffffffffffffffffffffffffffffff16021790555080600e8190555067016345785d8a0000600f81905550505050620004f4565b63ffffffff60e01b817bffffffffffffffffffffffffffffffffffffffffffffffffffffffff19161415620003d1576040517f08c379a000000000000000000000000000000000000000000000000000000000815260040180806020018281038252601c8152602001807f4552433136353a20696e76616c696420696e746572666163652069640000000081525060200191505060405180910390fd5b6001600080837bffffffffffffffffffffffffffffffffffffffffffffffffffffffff19167bffffffffffffffffffffffffffffffffffffffffffffffffffffffff1916815260200190815260200160002060006101000a81548160ff02191690831515021790555050565b600033905090565b828054600181600116156101000203166002900490600052602060002090601f016020900481019282601f106200048857805160ff1916838001178555620004b9565b82800160010185558215620004b9579182015b82811115620004b85782518255916020019190600101906200049b565b5b509050620004c89190620004cc565b5090565b620004f191905b80821115620004ed576000816000905550600101620004d3565b5090565b90565b61446d80620005046000396000f3fe608060405234801561001057600080fd5b50600436106102065760003560e01c806362d36dec1161011a57806394985ddd116100ad578063b88d4fde1161007c578063b88d4fde14610d8e578063c87b56dd14610e93578063dc6cfe1014610f3a578063e985e9c514610f90578063f2fde38b1461100c57610206565b806394985ddd14610c4157806395d89b4114610c795780639e317f1214610cfc578063a22cb46514610d3e57610206565b806370a08231116100e957806370a0823114610b53578063715018a614610bab57806386481d4014610bb55780638da5cb5b14610bf757610206565b806362d36dec146109d85780636352211e146109f65780636c0360eb14610a645780636fe0c04614610ae757610206565b80632f745c591161019d57806342842e0e1161016c57806342842e0e1461074a5780634810bc59146107b85780634f6ccce7146108905780634f8e2fdf146108d25780634f95b5f01461091c57610206565b80632f745c59146105d957806333b608631461063b5780633bb3a24d1461068557806342619f661461072c57610206565b8063095ea7b3116101d9578063095ea7b31461043a578063162094c41461048857806318160ddd1461054d57806323b872dd1461056b57610206565b806301ffc9a71461020b57806306396dbe1461027057806306fdde0314610349578063081812fc146103cc575b600080fd5b6102566004803603602081101561022157600080fd5b8101908080357bffffffffffffffffffffffffffffffffffffffffffffffffffffffff19169060200190929190505050611050565b604051808215151515815260200191505060405180910390f35b6103336004803603604081101561028657600080fd5b8101908080359060200190929190803590602001906401000000008111156102ad57600080fd5b8201836020820111156102bf57600080fd5b803590602001918460018302840111640100000000831117156102e157600080fd5b91908080601f016020809104026020016040519081016040528093929190818152602001838380828437600081840152601f19601f8201169050808301925050505050505091929192905050506110b7565b6040518082815260200191505060405180910390f35b610351611284565b6040518080602001828103825283818151815260200191508051906020019080838360005b83811015610391578082015181840152602081019050610376565b50505050905090810190601f1680156103be5780820380516001836020036101000a031916815260200191505b509250505060405180910390f35b6103f8600480360360208110156103e257600080fd5b8101908080359060200190929190505050611326565b604051808273ffffffffffffffffffffffffffffffffffffffff1673ffffffffffffffffffffffffffffffffffffffff16815260200191505060405180910390f35b6104866004803603604081101561045057600080fd5b81019080803573ffffffffffffffffffffffffffffffffffffffff169060200190929190803590602001909291905050506113c1565b005b61054b6004803603604081101561049e57600080fd5b8101908080359060200190929190803590602001906401000000008111156104c557600080fd5b8201836020820111156104d757600080fd5b803590602001918460018302840111640100000000831117156104f957600080fd5b91908080601f016020809104026020016040519081016040528093929190818152602001838380828437600081840152601f19601f820116905080830192505050505050509192919290505050611505565b005b610555611579565b6040518082815260200191505060405180910390f35b6105d76004803603606081101561058157600080fd5b81019080803573ffffffffffffffffffffffffffffffffffffffff169060200190929190803573ffffffffffffffffffffffffffffffffffffffff1690602001909291908035906020019092919050505061158a565b005b610625600480360360408110156105ef57600080fd5b81019080803573ffffffffffffffffffffffffffffffffffffffff16906020019092919080359060200190929190505050611600565b6040518082815260200191505060405180910390f35b61064361165b565b604051808273ffffffffffffffffffffffffffffffffffffffff1673ffffffffffffffffffffffffffffffffffffffff16815260200191505060405180910390f35b6106b16004803603602081101561069b57600080fd5b8101908080359060200190929190505050611681565b6040518080602001828103825283818151815260200191508051906020019080838360005b838110156106f15780820151818401526020810190506106d6565b50505050905090810190601f16801561071e5780820380516001836020036101000a031916815260200191505b509250505060405180910390f35b610734611693565b6040518082815260200191505060405180910390f35b6107b66004803603606081101561076057600080fd5b81019080803573ffffffffffffffffffffffffffffffffffffffff169060200190929190803573ffffffffffffffffffffffffffffffffffffffff16906020019092919080359060200190929190505050611699565b005b6107e4600480360360208110156107ce57600080fd5b81019080803590602001909291905050506116b9565b6040518089815260200188815260200187815260200186815260200185815260200184815260200183815260200180602001828103825283818151815260200191508051906020019080838360005b8381101561084e578082015181840152602081019050610833565b50505050905090810190601f16801561087b5780820380516001836020036101000a031916815260200191505b50995050505050505050505060405180910390f35b6108bc600480360360208110156108a657600080fd5b81019080803590602001909291905050506117a6565b6040518082815260200191505060405180910390f35b6108da6117c9565b604051808273ffffffffffffffffffffffffffffffffffffffff1673ffffffffffffffffffffffffffffffffffffffff16815260200191505060405180910390f35b6109486004803603602081101561093257600080fd5b81019080803590602001909291905050506117ef565b6040518080602001858152602001848152602001838152602001828103825286818151815260200191508051906020019080838360005b8381101561099a57808201518184015260208101905061097f565b50505050905090810190601f1680156109c75780820380516001836020036101000a031916815260200191505b509550505050505060405180910390f35b6109e06119a6565b6040518082815260200191505060405180910390f35b610a2260048036036020811015610a0c57600080fd5b81019080803590602001909291905050506119b3565b604051808273ffffffffffffffffffffffffffffffffffffffff1673ffffffffffffffffffffffffffffffffffffffff16815260200191505060405180910390f35b610a6c6119ea565b6040518080602001828103825283818151815260200191508051906020019080838360005b83811015610aac578082015181840152602081019050610a91565b50505050905090810190601f168015610ad95780820380516001836020036101000a031916815260200191505b509250505060405180910390f35b610b1360048036036020811015610afd57600080fd5b8101908080359060200190929190505050611a8c565b6040518088815260200187815260200186815260200185815260200184815260200183815260200182815260200197505050505050505060405180910390f35b610b9560048036036020811015610b6957600080fd5b81019080803573ffffffffffffffffffffffffffffffffffffffff169060200190929190505050611b89565b6040518082815260200191505060405180910390f35b610bb3611c5e565b005b610be160048036036020811015610bcb57600080fd5b8101908080359060200190929190505050611dce565b6040518082815260200191505060405180910390f35b610bff611dfe565b604051808273ffffffffffffffffffffffffffffffffffffffff1673ffffffffffffffffffffffffffffffffffffffff16815260200191505060405180910390f35b610c7760048036036040811015610c5757600080fd5b810190808035906020019092919080359060200190929190505050611e28565b005b610c81611ef9565b6040518080602001828103825283818151815260200191508051906020019080838360005b83811015610cc1578082015181840152602081019050610ca6565b50505050905090810190601f168015610cee5780820380516001836020036101000a031916815260200191505b509250505060405180910390f35b610d2860048036036020811015610d1257600080fd5b8101908080359060200190929190505050611f9b565b6040518082815260200191505060405180910390f35b610d8c60048036036040811015610d5457600080fd5b81019080803573ffffffffffffffffffffffffffffffffffffffff169060200190929190803515159060200190929190505050611fb3565b005b610e9160048036036080811015610da457600080fd5b81019080803573ffffffffffffffffffffffffffffffffffffffff169060200190929190803573ffffffffffffffffffffffffffffffffffffffff1690602001909291908035906020019092919080359060200190640100000000811115610e0b57600080fd5b820183602082011115610e1d57600080fd5b80359060200191846001830284011164010000000083111715610e3f57600080fd5b91908080601f016020809104026020016040519081016040528093929190818152602001838380828437600081840152601f19601f82011690508083019250505050505050919291929050505061216b565b005b610ebf60048036036020811015610ea957600080fd5b81019080803590602001909291905050506121e3565b6040518080602001828103825283818151815260200191508051906020019080838360005b83811015610eff578082015181840152602081019050610ee4565b50505050905090810190601f168015610f2c5780820380516001836020036101000a031916815260200191505b509250505060405180910390f35b610f7a60048036036060811015610f5057600080fd5b810190808035906020019092919080359060200190929190803590602001909291905050506124b4565b6040518082815260200191505060405180910390f35b610ff260048036036040811015610fa657600080fd5b81019080803573ffffffffffffffffffffffffffffffffffffffff169060200190929190803573ffffffffffffffffffffffffffffffffffffffff1690602001909291905050506126c6565b604051808215151515815260200191505060405180910390f35b61104e6004803603602081101561102257600080fd5b81019080803573ffffffffffffffffffffffffffffffffffffffff16906020019092919050505061275a565b005b6000806000837bffffffffffffffffffffffffffffffffffffffffffffffffffffffff19167bffffffffffffffffffffffffffffffffffffffffffffffffffffffff1916815260200190815260200160002060009054906101000a900460ff169050919050565b6000600f54600a60009054906101000a900473ffffffffffffffffffffffffffffffffffffffff1673ffffffffffffffffffffffffffffffffffffffff166370a08231306040518263ffffffff1660e01b8152600401808273ffffffffffffffffffffffffffffffffffffffff1673ffffffffffffffffffffffffffffffffffffffff16815260200191505060206040518083038186803b15801561115b57600080fd5b505afa15801561116f573d6000803e3d6000fd5b505050506040513d602081101561118557600080fd5b810190808051906020019092919050505010156111ed576040517f08c379a000000000000000000000000000000000000000000000000000000000815260040180806020018281038252602b81526020018061420c602b913960400191505060405180910390fd5b60006111fe600e54600f54866124b4565b9050826014600083815260200190815260200160002090805190602001906112279291906140c8565b50336015600083815260200190815260200160002060006101000a81548173ffffffffffffffffffffffffffffffffffffffff021916908373ffffffffffffffffffffffffffffffffffffffff1602179055508091505092915050565b606060068054600181600116156101000203166002900480601f01602080910402602001604051908101604052809291908181526020018280546001816001161561010002031660029004801561131c5780601f106112f15761010080835404028352916020019161131c565b820191906000526020600020905b8154815290600101906020018083116112ff57829003601f168201915b5050505050905090565b60006113318261294f565b611386576040517f08c379a000000000000000000000000000000000000000000000000000000000815260040180806020018281038252602c815260200180614336602c913960400191505060405180910390fd5b6004600083815260200190815260200160002060009054906101000a900473ffffffffffffffffffffffffffffffffffffffff169050919050565b60006113cc826119b3565b90508073ffffffffffffffffffffffffffffffffffffffff168373ffffffffffffffffffffffffffffffffffffffff161415611453576040517f08c379a00000000000000000000000000000000000000000000000000000000081526004018080602001828103825260218152602001806143e66021913960400191505060405180910390fd5b8073ffffffffffffffffffffffffffffffffffffffff1661147261296c565b73ffffffffffffffffffffffffffffffffffffffff1614806114a157506114a08161149b61296c565b6126c6565b5b6114f6576040517f08c379a00000000000000000000000000000000000000000000000000000000081526004018080602001828103825260388152602001806142896038913960400191505060405180910390fd5b6115008383612974565b505050565b61151661151061296c565b83612a2d565b61156b576040517f08c379a00000000000000000000000000000000000000000000000000000000081526004018080602001828103825260318152602001806144076031913960400191505060405180910390fd5b6115758282612b21565b5050565b60006115856002612bab565b905090565b61159b61159561296c565b82612a2d565b6115f0576040517f08c379a00000000000000000000000000000000000000000000000000000000081526004018080602001828103825260318152602001806144076031913960400191505060405180910390fd5b6115fb838383612bc0565b505050565b600061165382600160008673ffffffffffffffffffffffffffffffffffffffff1673ffffffffffffffffffffffffffffffffffffffff168152602001908152602001600020612e0390919063ffffffff16565b905092915050565b601160009054906101000a900473ffffffffffffffffffffffffffffffffffffffff1681565b606061168c826121e3565b9050919050565b60105481565b6116b48383836040518060200160405280600081525061216b565b505050565b601381815481106116c657fe5b9060005260206000209060080201600091509050806000015490806001015490806002015490806003015490806004015490806005015490806006015490806007018054600181600116156101000203166002900480601f01602080910402602001604051908101604052809291908181526020018280546001816001161561010002031660029004801561179c5780601f106117715761010080835404028352916020019161179c565b820191906000526020600020905b81548152906001019060200180831161177f57829003601f168201915b5050505050905088565b6000806117bd836002612e1d90919063ffffffff16565b50905080915050919050565b601260009054906101000a900473ffffffffffffffffffffffffffffffffffffffff1681565b606060008060006013858154811061180357fe5b90600052602060002090600802016007016013868154811061182157fe5b9060005260206000209060080201600501546013878154811061184057fe5b9060005260206000209060080201600401546013888154811061185f57fe5b9060005260206000209060080201600301546013898154811061187e57fe5b90600052602060002090600802016002015460138a8154811061189d57fe5b90600052602060002090600802016001015460138b815481106118bc57fe5b90600052602060002090600802016000015401010101016118dc87611dce565b601388815481106118e957fe5b906000526020600020906008020160060154838054600181600116156101000203166002900480601f0160208091040260200160405190810160405280929190818152602001828054600181600116156101000203166002900480156119905780601f1061196557610100808354040283529160200191611990565b820191906000526020600020905b81548152906001019060200180831161197357829003601f168201915b5050505050935093509350935093509193509193565b6000601380549050905090565b60006119e3826040518060600160405280602981526020016142eb602991396002612e4c9092919063ffffffff16565b9050919050565b606060098054600181600116156101000203166002900480601f016020809104026020016040519081016040528092919081815260200182805460018160011615610100020316600290048015611a825780601f10611a5757610100808354040283529160200191611a82565b820191906000526020600020905b815481529060010190602001808311611a6557829003601f168201915b5050505050905090565b600080600080600080600060138881548110611aa457fe5b90600052602060002090600802016000015460138981548110611ac357fe5b90600052602060002090600802016001015460138a81548110611ae257fe5b90600052602060002090600802016002015460138b81548110611b0157fe5b90600052602060002090600802016003015460138c81548110611b2057fe5b90600052602060002090600802016004015460138d81548110611b3f57fe5b90600052602060002090600802016005015460138e81548110611b5e57fe5b9060005260206000209060080201600601549650965096509650965096509650919395979092949650565b60008073ffffffffffffffffffffffffffffffffffffffff168273ffffffffffffffffffffffffffffffffffffffff161415611c10576040517f08c379a000000000000000000000000000000000000000000000000000000000815260040180806020018281038252602a8152602001806142c1602a913960400191505060405180910390fd5b611c57600160008473ffffffffffffffffffffffffffffffffffffffff1673ffffffffffffffffffffffffffffffffffffffff168152602001908152602001600020612e6b565b9050919050565b611c6661296c565b73ffffffffffffffffffffffffffffffffffffffff16611c84611dfe565b73ffffffffffffffffffffffffffffffffffffffff1614611d0d576040517f08c379a00000000000000000000000000000000000000000000000000000000081526004018080602001828103825260208152602001807f4f776e61626c653a2063616c6c6572206973206e6f7420746865206f776e657281525060200191505060405180910390fd5b600073ffffffffffffffffffffffffffffffffffffffff16600d60009054906101000a900473ffffffffffffffffffffffffffffffffffffffff1673ffffffffffffffffffffffffffffffffffffffff167f8be0079c531659141344cd1fd0a4f28419497f9722a3daafe3b4186f6b6457e060405160405180910390a36000600d60006101000a81548173ffffffffffffffffffffffffffffffffffffffff021916908373ffffffffffffffffffffffffffffffffffffffff160217905550565b6000611df760138381548110611de057fe5b906000526020600020906008020160060154612e80565b9050919050565b6000600d60009054906101000a900473ffffffffffffffffffffffffffffffffffffffff16905090565b600b60009054906101000a900473ffffffffffffffffffffffffffffffffffffffff1673ffffffffffffffffffffffffffffffffffffffff163373ffffffffffffffffffffffffffffffffffffffff1614611eeb576040517f08c379a000000000000000000000000000000000000000000000000000000000815260040180806020018281038252601f8152602001807f4f6e6c7920565246436f6f7264696e61746f722063616e2066756c66696c6c0081525060200191505060405180910390fd5b611ef58282612ec5565b5050565b606060078054600181600116156101000203166002900480601f016020809104026020016040519081016040528092919081815260200182805460018160011615610100020316600290048015611f915780601f10611f6657610100808354040283529160200191611f91565b820191906000526020600020905b815481529060010190602001808311611f7457829003601f168201915b5050505050905090565b600c6020528060005260406000206000915090505481565b611fbb61296c565b73ffffffffffffffffffffffffffffffffffffffff168273ffffffffffffffffffffffffffffffffffffffff16141561205c576040517f08c379a00000000000000000000000000000000000000000000000000000000081526004018080602001828103825260198152602001807f4552433732313a20617070726f766520746f2063616c6c65720000000000000081525060200191505060405180910390fd5b806005600061206961296c565b73ffffffffffffffffffffffffffffffffffffffff1673ffffffffffffffffffffffffffffffffffffffff16815260200190815260200160002060008473ffffffffffffffffffffffffffffffffffffffff1673ffffffffffffffffffffffffffffffffffffffff16815260200190815260200160002060006101000a81548160ff0219169083151502179055508173ffffffffffffffffffffffffffffffffffffffff1661211661296c565b73ffffffffffffffffffffffffffffffffffffffff167f17307eab39ab6107e8899845ad3d59bd9653f200f220920489ca2b5937696c3183604051808215151515815260200191505060405180910390a35050565b61217c61217661296c565b83612a2d565b6121d1576040517f08c379a00000000000000000000000000000000000000000000000000000000081526004018080602001828103825260318152602001806144076031913960400191505060405180910390fd5b6121dd84848484613136565b50505050565b60606121ee8261294f565b612243576040517f08c379a000000000000000000000000000000000000000000000000000000000815260040180806020018281038252602f8152602001806143b7602f913960400191505060405180910390fd5b6060600860008481526020019081526020016000208054600181600116156101000203166002900480601f0160208091040260200160405190810160405280929190818152602001828054600181600116156101000203166002900480156122ec5780601f106122c1576101008083540402835291602001916122ec565b820191906000526020600020905b8154815290600101906020018083116122cf57829003601f168201915b5050505050905060606122fd6119ea565b90506000815114156123135781925050506124af565b6000825111156123e45780826040516020018083805190602001908083835b602083106123555780518252602082019150602081019050602083039250612332565b6001836020036101000a03801982511681845116808217855250505050505090500182805190602001908083835b602083106123a65780518252602082019150602081019050602083039250612383565b6001836020036101000a03801982511681845116808217855250505050505090500192505050604051602081830303815290604052925050506124af565b806123ee856131a8565b6040516020018083805190602001908083835b602083106124245780518252602082019150602081019050602083039250612401565b6001836020036101000a03801982511681845116808217855250505050505090500182805190602001908083835b602083106124755780518252602082019150602081019050602083039250612452565b6001836020036101000a03801982511681845116808217855250505050505090500192505050604051602081830303815290604052925050505b919050565b6000600a60009054906101000a900473ffffffffffffffffffffffffffffffffffffffff1673ffffffffffffffffffffffffffffffffffffffff16634000aea0600b60009054906101000a900473ffffffffffffffffffffffffffffffffffffffff1685878660405160200180838152602001828152602001925050506040516020818303038152906040526040518463ffffffff1660e01b8152600401808473ffffffffffffffffffffffffffffffffffffffff1673ffffffffffffffffffffffffffffffffffffffff16815260200183815260200180602001828103825283818151815260200191508051906020019080838360005b838110156125c75780820151818401526020810190506125ac565b50505050905090810190601f1680156125f45780820380516001836020036101000a031916815260200191505b50945050505050602060405180830381600087803b15801561261557600080fd5b505af1158015612629573d6000803e3d6000fd5b505050506040513d602081101561263f57600080fd5b8101908080519060200190929190505050506000612672858430600c60008a8152602001908152602001600020546132ef565b905061269b6001600c60008881526020019081526020016000205461336990919063ffffffff16565b600c6000878152602001908152602001600020819055506126bc85826133f1565b9150509392505050565b6000600560008473ffffffffffffffffffffffffffffffffffffffff1673ffffffffffffffffffffffffffffffffffffffff16815260200190815260200160002060008373ffffffffffffffffffffffffffffffffffffffff1673ffffffffffffffffffffffffffffffffffffffff16815260200190815260200160002060009054906101000a900460ff16905092915050565b61276261296c565b73ffffffffffffffffffffffffffffffffffffffff16612780611dfe565b73ffffffffffffffffffffffffffffffffffffffff1614612809576040517f08c379a00000000000000000000000000000000000000000000000000000000081526004018080602001828103825260208152602001807f4f776e61626c653a2063616c6c6572206973206e6f7420746865206f776e657281525060200191505060405180910390fd5b600073ffffffffffffffffffffffffffffffffffffffff168173ffffffffffffffffffffffffffffffffffffffff16141561288f576040517f08c379a00000000000000000000000000000000000000000000000000000000081526004018080602001828103825260268152602001806141c26026913960400191505060405180910390fd5b8073ffffffffffffffffffffffffffffffffffffffff16600d60009054906101000a900473ffffffffffffffffffffffffffffffffffffffff1673ffffffffffffffffffffffffffffffffffffffff167f8be0079c531659141344cd1fd0a4f28419497f9722a3daafe3b4186f6b6457e060405160405180910390a380600d60006101000a81548173ffffffffffffffffffffffffffffffffffffffff021916908373ffffffffffffffffffffffffffffffffffffffff16021790555050565b600061296582600261342a90919063ffffffff16565b9050919050565b600033905090565b816004600083815260200190815260200160002060006101000a81548173ffffffffffffffffffffffffffffffffffffffff021916908373ffffffffffffffffffffffffffffffffffffffff160217905550808273ffffffffffffffffffffffffffffffffffffffff166129e7836119b3565b73ffffffffffffffffffffffffffffffffffffffff167f8c5be1e5ebec7d5bd14f71427d1e84f3dd0314c0f7b2291e5b200ac8c7c3b92560405160405180910390a45050565b6000612a388261294f565b612a8d576040517f08c379a000000000000000000000000000000000000000000000000000000000815260040180806020018281038252602c81526020018061425d602c913960400191505060405180910390fd5b6000612a98836119b3565b90508073ffffffffffffffffffffffffffffffffffffffff168473ffffffffffffffffffffffffffffffffffffffff161480612b0757508373ffffffffffffffffffffffffffffffffffffffff16612aef84611326565b73ffffffffffffffffffffffffffffffffffffffff16145b80612b185750612b1781856126c6565b5b91505092915050565b612b2a8261294f565b612b7f576040517f08c379a000000000000000000000000000000000000000000000000000000000815260040180806020018281038252602c815260200180614362602c913960400191505060405180910390fd5b80600860008481526020019081526020016000209080519060200190612ba69291906140c8565b505050565b6000612bb982600001613444565b9050919050565b8273ffffffffffffffffffffffffffffffffffffffff16612be0826119b3565b73ffffffffffffffffffffffffffffffffffffffff1614612c4c576040517f08c379a000000000000000000000000000000000000000000000000000000000815260040180806020018281038252602981526020018061438e6029913960400191505060405180910390fd5b600073ffffffffffffffffffffffffffffffffffffffff168273ffffffffffffffffffffffffffffffffffffffff161415612cd2576040517f08c379a00000000000000000000000000000000000000000000000000000000081526004018080602001828103825260248152602001806141e86024913960400191505060405180910390fd5b612cdd838383613455565b612ce8600082612974565b612d3981600160008673ffffffffffffffffffffffffffffffffffffffff1673ffffffffffffffffffffffffffffffffffffffff16815260200190815260200160002061345a90919063ffffffff16565b50612d8b81600160008573ffffffffffffffffffffffffffffffffffffffff1673ffffffffffffffffffffffffffffffffffffffff16815260200190815260200160002061347490919063ffffffff16565b50612da28183600261348e9092919063ffffffff16565b50808273ffffffffffffffffffffffffffffffffffffffff168473ffffffffffffffffffffffffffffffffffffffff167fddf252ad1be2c89b69c2b068fc378daa952ba7f163c4a11628f55a4df523b3ef60405160405180910390a4505050565b6000612e1283600001836134c3565b60001c905092915050565b600080600080612e308660000186613546565b915091508160001c8160001c8090509350935050509250929050565b6000612e5f846000018460001b846135df565b60001c90509392505050565b6000612e79826000016136d5565b9050919050565b60008060026001840181612e9057fe5b0490508291505b81811015612ebf57809150600281828581612eae57fe5b040181612eb757fe5b049050612e97565b50919050565b60006013805490509050600060648381612edb57fe5b069050600060646127108581612eed57fe5b0681612ef557fe5b0490506000612710620f42408681612f0957fe5b0681612f1157fe5b0490506000620f42406305f5e1008781612f2757fe5b0681612f2f57fe5b04905060006305f5e1006402540be4008881612f4757fe5b0681612f4f57fe5b04905060006402540be40064e8d4a510008981612f6857fe5b0681612f7057fe5b04905060008090506013604051806101000160405280898152602001888152602001878152602001868152602001858152602001848152602001838152602001601460008e81526020019081526020016000208054600181600116156101000203166002900480601f0160208091040260200160405190810160405280929190818152602001828054600181600116156101000203166002900480156130575780601f1061302c57610100808354040283529160200191613057565b820191906000526020600020905b81548152906001019060200180831161303a57829003601f168201915b50505050508152509080600181540180825580915050600190039060005260206000209060080201600090919091909150600082015181600001556020820151816001015560408201518160020155606082015181600301556080820151816004015560a0820151816005015560c0820151816006015560e08201518160070190805190602001906130ea9291906140c8565b50505061312a601560008c815260200190815260200160002060009054906101000a900473ffffffffffffffffffffffffffffffffffffffff16896136e6565b50505050505050505050565b613141848484612bc0565b61314d84848484613704565b6131a2576040517f08c379a00000000000000000000000000000000000000000000000000000000081526004018080602001828103825260328152602001806141906032913960400191505060405180910390fd5b50505050565b606060008214156131f0576040518060400160405280600181526020017f300000000000000000000000000000000000000000000000000000000000000081525090506132ea565b600082905060005b6000821461321a578080600101915050600a828161321257fe5b0491506131f8565b60608167ffffffffffffffff8111801561323357600080fd5b506040519080825280601f01601f1916602001820160405280156132665781602001600182028036833780820191505090505b50905060006001830390508593505b600084146132e257600a848161328757fe5b0660300160f81b828280600190039350815181106132a157fe5b60200101907effffffffffffffffffffffffffffffffffffffffffffffffffffffffffffff1916908160001a905350600a84816132da57fe5b049350613275565b819450505050505b919050565b600084848484604051602001808581526020018481526020018373ffffffffffffffffffffffffffffffffffffffff1673ffffffffffffffffffffffffffffffffffffffff1681526020018281526020019450505050506040516020818303038152906040528051906020012060001c9050949350505050565b6000808284019050838110156133e7576040517f08c379a000000000000000000000000000000000000000000000000000000000815260040180806020018281038252601b8152602001807f536166654d6174683a206164646974696f6e206f766572666c6f77000000000081525060200191505060405180910390fd5b8091505092915050565b60008282604051602001808381526020018281526020019250505060405160208183030381529060405280519060200120905092915050565b600061343c836000018360001b613949565b905092915050565b600081600001805490509050919050565b505050565b600061346c836000018360001b61396c565b905092915050565b6000613486836000018360001b613a54565b905092915050565b60006134ba846000018460001b8473ffffffffffffffffffffffffffffffffffffffff1660001b613ac4565b90509392505050565b600081836000018054905011613524576040517f08c379a000000000000000000000000000000000000000000000000000000000815260040180806020018281038252602281526020018061416e6022913960400191505060405180910390fd5b82600001828154811061353357fe5b9060005260206000200154905092915050565b600080828460000180549050116135a8576040517f08c379a00000000000000000000000000000000000000000000000000000000081526004018080602001828103825260228152602001806143146022913960400191505060405180910390fd5b60008460000184815481106135b957fe5b906000526020600020906002020190508060000154816001015492509250509250929050565b600080846001016000858152602001908152602001600020549050600081141583906136a6576040517f08c379a00000000000000000000000000000000000000000000000000000000081526004018080602001828103825283818151815260200191508051906020019080838360005b8381101561366b578082015181840152602081019050613650565b50505050905090810190601f1680156136985780820380516001836020036101000a031916815260200191505b509250505060405180910390fd5b508460000160018203815481106136b957fe5b9060005260206000209060020201600101549150509392505050565b600081600001805490509050919050565b613700828260405180602001604052806000815250613ba0565b5050565b60006137258473ffffffffffffffffffffffffffffffffffffffff16613c11565b6137325760019050613941565b60606138c863150b7a0260e01b61374761296c565b888787604051602401808573ffffffffffffffffffffffffffffffffffffffff1673ffffffffffffffffffffffffffffffffffffffff1681526020018473ffffffffffffffffffffffffffffffffffffffff1673ffffffffffffffffffffffffffffffffffffffff16815260200183815260200180602001828103825283818151815260200191508051906020019080838360005b838110156137f75780820151818401526020810190506137dc565b50505050905090810190601f1680156138245780820380516001836020036101000a031916815260200191505b5095505050505050604051602081830303815290604052907bffffffffffffffffffffffffffffffffffffffffffffffffffffffff19166020820180517bffffffffffffffffffffffffffffffffffffffffffffffffffffffff8381831617835250505050604051806060016040528060328152602001614190603291398773ffffffffffffffffffffffffffffffffffffffff16613c249092919063ffffffff16565b905060008180602001905160208110156138e157600080fd5b8101908080519060200190929190505050905063150b7a0260e01b7bffffffffffffffffffffffffffffffffffffffffffffffffffffffff1916817bffffffffffffffffffffffffffffffffffffffffffffffffffffffff191614925050505b949350505050565b600080836001016000848152602001908152602001600020541415905092915050565b60008083600101600084815260200190815260200160002054905060008114613a4857600060018203905060006001866000018054905003905060008660000182815481106139b757fe5b90600052602060002001549050808760000184815481106139d457fe5b9060005260206000200181905550600183018760010160008381526020019081526020016000208190555086600001805480613a0c57fe5b60019003818190600052602060002001600090559055866001016000878152602001908152602001600020600090556001945050505050613a4e565b60009150505b92915050565b6000613a608383613c3c565b613ab9578260000182908060018154018082558091505060019003906000526020600020016000909190919091505582600001805490508360010160008481526020019081526020016000208190555060019050613abe565b600090505b92915050565b6000808460010160008581526020019081526020016000205490506000811415613b6b57846000016040518060400160405280868152602001858152509080600181540180825580915050600190039060005260206000209060020201600090919091909150600082015181600001556020820151816001015550508460000180549050856001016000868152602001908152602001600020819055506001915050613b99565b82856000016001830381548110613b7e57fe5b90600052602060002090600202016001018190555060009150505b9392505050565b613baa8383613c5f565b613bb76000848484613704565b613c0c576040517f08c379a00000000000000000000000000000000000000000000000000000000081526004018080602001828103825260328152602001806141906032913960400191505060405180910390fd5b505050565b600080823b905060008111915050919050565b6060613c338484600085613e53565b90509392505050565b600080836001016000848152602001908152602001600020541415905092915050565b600073ffffffffffffffffffffffffffffffffffffffff168273ffffffffffffffffffffffffffffffffffffffff161415613d02576040517f08c379a00000000000000000000000000000000000000000000000000000000081526004018080602001828103825260208152602001807f4552433732313a206d696e7420746f20746865207a65726f206164647265737381525060200191505060405180910390fd5b613d0b8161294f565b15613d7e576040517f08c379a000000000000000000000000000000000000000000000000000000000815260040180806020018281038252601c8152602001807f4552433732313a20746f6b656e20616c7265616479206d696e7465640000000081525060200191505060405180910390fd5b613d8a60008383613455565b613ddb81600160008573ffffffffffffffffffffffffffffffffffffffff1673ffffffffffffffffffffffffffffffffffffffff16815260200190815260200160002061347490919063ffffffff16565b50613df28183600261348e9092919063ffffffff16565b50808273ffffffffffffffffffffffffffffffffffffffff16600073ffffffffffffffffffffffffffffffffffffffff167fddf252ad1be2c89b69c2b068fc378daa952ba7f163c4a11628f55a4df523b3ef60405160405180910390a45050565b606082471015613eae576040517f08c379a00000000000000000000000000000000000000000000000000000000081526004018080602001828103825260268152602001806142376026913960400191505060405180910390fd5b613eb785613c11565b613f29576040517f08c379a000000000000000000000000000000000000000000000000000000000815260040180806020018281038252601d8152602001807f416464726573733a2063616c6c20746f206e6f6e2d636f6e747261637400000081525060200191505060405180910390fd5b600060608673ffffffffffffffffffffffffffffffffffffffff1685876040518082805190602001908083835b60208310613f795780518252602082019150602081019050602083039250613f56565b6001836020036101000a03801982511681845116808217855250505050505090500191505060006040518083038185875af1925050503d8060008114613fdb576040519150601f19603f3d011682016040523d82523d6000602084013e613fe0565b606091505b5091509150613ff0828286613ffc565b92505050949350505050565b6060831561400c578290506140c1565b60008351111561401f5782518084602001fd5b816040517f08c379a00000000000000000000000000000000000000000000000000000000081526004018080602001828103825283818151815260200191508051906020019080838360005b8381101561408657808201518184015260208101905061406b565b50505050905090810190601f1680156140b35780820380516001836020036101000a031916815260200191505b509250505060405180910390fd5b9392505050565b828054600181600116156101000203166002900490600052602060002090601f016020900481019282601f1061410957805160ff1916838001178555614137565b82800160010185558215614137579182015b8281111561413657825182559160200191906001019061411b565b5b5090506141449190614148565b5090565b61416a91905b8082111561416657600081600090555060010161414e565b5090565b9056fe456e756d657261626c655365743a20696e646578206f7574206f6620626f756e64734552433732313a207472616e7366657220746f206e6f6e20455243373231526563656976657220696d706c656d656e7465724f776e61626c653a206e6577206f776e657220697320746865207a65726f20616464726573734552433732313a207472616e7366657220746f20746865207a65726f20616464726573734e6f7420656e6f756768204c494e4b202d2066696c6c20636f6e7472616374207769746820666175636574416464726573733a20696e73756666696369656e742062616c616e636520666f722063616c6c4552433732313a206f70657261746f7220717565727920666f72206e6f6e6578697374656e7420746f6b656e4552433732313a20617070726f76652063616c6c6572206973206e6f74206f776e6572206e6f7220617070726f76656420666f7220616c6c4552433732313a2062616c616e636520717565727920666f7220746865207a65726f20616464726573734552433732313a206f776e657220717565727920666f72206e6f6e6578697374656e7420746f6b656e456e756d657261626c654d61703a20696e646578206f7574206f6620626f756e64734552433732313a20617070726f76656420717565727920666f72206e6f6e6578697374656e7420746f6b656e4552433732314d657461646174613a2055524920736574206f66206e6f6e6578697374656e7420746f6b656e4552433732313a207472616e73666572206f6620746f6b656e2074686174206973206e6f74206f776e4552433732314d657461646174613a2055524920717565727920666f72206e6f6e6578697374656e7420746f6b656e4552433732313a20617070726f76616c20746f2063757272656e74206f776e65724552433732313a207472616e736665722063616c6c6572206973206e6f74206f776e6572206e6f7220617070726f766564a2646970667358221220f98c8b417bcade79a124fee8ad361e676f3181fe196e62beab6609c43171240964736f6c63430006060033",
  "immutableReferences": {},
  "source": "// contracts/DungeonsAndDragonsCharacter.sol\r\n// SPDX-License-Identifier: MIT\r\npragma solidity ^0.6.6;\r\n\r\nimport \"@openzeppelin/contracts/token/ERC721/ERC721.sol\";\r\nimport \"@chainlink/contracts/src/v0.6/VRFConsumerBase.sol\";\r\nimport \"@openzeppelin/contracts/access/Ownable.sol\";\r\nimport \"@openzeppelin/contracts/utils/Strings.sol\";\r\n\r\ncontract DaD is ERC721, VRFConsumerBase, Ownable {\r\n    using SafeMath for uint256;\r\n    using Strings for string;\r\n\r\n    bytes32 internal keyHash;\r\n    uint256 internal fee;\r\n    uint256 public randomResult;\r\n    address public VRFCoordinator;\r\n    // rinkeby: 0xb3dCcb4Cf7a26f6cf6B120Cf5A73875B7BBc655B\r\n    address public LinkToken;\r\n    // rinkeby: 0x01BE23585060835E02B77ef475b0Cc51aA1e0709a\r\n\r\n    struct Character {\r\n        uint256 strength;\r\n        uint256 dexterity;\r\n        uint256 constitution;\r\n        uint256 intelligence;\r\n        uint256 wisdom;\r\n        uint256 charisma;\r\n        uint256 experience;\r\n        string name;\r\n    }\r\n\r\n    Character[] public characters;\r\n\r\n    mapping(bytes32 => string) requestToCharacterName;\r\n    mapping(bytes32 => address) requestToSender;\r\n    mapping(bytes32 => uint256) requestToTokenId;\r\n\r\n    /**\r\n     * Constructor inherits VRFConsumerBase\r\n     *\r\n     * Network: Rinkeby\r\n     * Chainlink VRF Coordinator address: 0xb3dCcb4Cf7a26f6cf6B120Cf5A73875B7BBc655B\r\n     * LINK token address:                0x01BE23585060835E02B77ef475b0Cc51aA1e0709\r\n     * Key Hash: 0x2ed0feb3e7fd2022120aa84fab1945545a9f2ffc9076fd6156fa96eaff4c1311\r\n     */\r\n    constructor(address _VRFCoordinator, address _LinkToken, bytes32 _keyhash)\r\n        public\r\n        VRFConsumerBase(_VRFCoordinator, _LinkToken)\r\n        ERC721(\"DaD\", \"GG\")\r\n    {   \r\n        VRFCoordinator = _VRFCoordinator;\r\n        LinkToken = _LinkToken;\r\n        keyHash = _keyhash;\r\n        fee = 0.1 * 10**18; // 0.1 LINK\r\n    }\r\n\r\n    function requestNewRandomCharacter(\r\n        uint256 userProvidedSeed,\r\n        string memory name\r\n    ) public returns (bytes32) {\r\n        require(\r\n            LINK.balanceOf(address(this)) >= fee,\r\n            \"Not enough LINK - fill contract with faucet\"\r\n        );\r\n        bytes32 requestId = requestRandomness(keyHash, fee, userProvidedSeed);\r\n        requestToCharacterName[requestId] = name;\r\n        requestToSender[requestId] = msg.sender;\r\n        return requestId;\r\n    }\r\n\r\n    function getTokenURI(uint256 tokenId) public view returns (string memory) {\r\n        return tokenURI(tokenId);\r\n    }\r\n\r\n    function setTokenURI(uint256 tokenId, string memory _tokenURI) public {\r\n        require(\r\n            _isApprovedOrOwner(_msgSender(), tokenId),\r\n            \"ERC721: transfer caller is not owner nor approved\"\r\n        );\r\n        _setTokenURI(tokenId, _tokenURI);\r\n    }\r\n\r\n    function fulfillRandomness(bytes32 requestId, uint256 randomNumber)\r\n        internal\r\n        override\r\n    {\r\n        uint256 newId = characters.length;\r\n        uint256 strength = (randomNumber % 100);\r\n        uint256 dexterity = ((randomNumber % 10000) / 100 );\r\n        uint256 constitution = ((randomNumber % 1000000) / 10000 );\r\n        uint256 intelligence = ((randomNumber % 100000000) / 1000000 );\r\n        uint256 wisdom = ((randomNumber % 10000000000) / 100000000 );\r\n        uint256 charisma = ((randomNumber % 1000000000000) / 10000000000);\r\n        uint256 experience = 0;\r\n\r\n        characters.push(\r\n            Character(\r\n                strength,\r\n                dexterity,\r\n                constitution,\r\n                intelligence,\r\n                wisdom,\r\n                charisma,\r\n                experience,\r\n                requestToCharacterName[requestId]\r\n            )\r\n        );\r\n        _safeMint(requestToSender[requestId], newId);\r\n    }\r\n\r\n    function getLevel(uint256 tokenId) public view returns (uint256) {\r\n        return sqrt(characters[tokenId].experience);\r\n    }\r\n\r\n    function getNumberOfCharacters() public view returns (uint256) {\r\n        return characters.length; \r\n    }\r\n\r\n    function getCharacterOverView(uint256 tokenId)\r\n        public\r\n        view\r\n        returns (\r\n            string memory,\r\n            uint256,\r\n            uint256,\r\n            uint256\r\n        )\r\n    {\r\n        return (\r\n            characters[tokenId].name,\r\n            characters[tokenId].strength + characters[tokenId].dexterity + characters[tokenId].constitution + characters[tokenId].intelligence + characters[tokenId].wisdom + characters[tokenId].charisma,\r\n            getLevel(tokenId),\r\n            characters[tokenId].experience\r\n        );\r\n    }\r\n\r\n    function getCharacterStats(uint256 tokenId)\r\n        public\r\n        view\r\n        returns (\r\n            uint256,\r\n            uint256,\r\n            uint256,\r\n            uint256,\r\n            uint256,\r\n            uint256,\r\n            uint256\r\n        )\r\n    {\r\n        return (\r\n            characters[tokenId].strength,\r\n            characters[tokenId].dexterity,\r\n            characters[tokenId].constitution,\r\n            characters[tokenId].intelligence,\r\n            characters[tokenId].wisdom,\r\n            characters[tokenId].charisma,\r\n            characters[tokenId].experience\r\n        );\r\n    }\r\n\r\n    function sqrt(uint256 x) internal view returns (uint256 y) {\r\n        uint256 z = (x + 1) / 2;\r\n        y = x;\r\n        while (z < y) {\r\n            y = z;\r\n            z = (x / z + z) / 2;\r\n        }\r\n    }\r\n}\r\n",
  "sourcePath": "D:/nft-example/contracts/DaD.sol",
  "compiler": {
    "name": "solc",
    "version": "0.6.6+commit.6c089d02.Emscripten.clang"
  },
  "schemaVersion": "3.3.4",
  "updatedAt": "2021-04-07T21:10:09.933Z",
  "networkType": "ethereum",
  "devdoc": {
    "methods": {
      "approve(address,uint256)": {
        "details": "See {IERC721-approve}."
      },
      "balanceOf(address)": {
        "details": "See {IERC721-balanceOf}."
      },
      "baseURI()": {
        "details": "Returns the base URI set via {_setBaseURI}. This will be automatically added as a prefix in {tokenURI} to each token's URI, or to the token ID if no specific URI is set for that token ID."
      },
      "getApproved(uint256)": {
        "details": "See {IERC721-getApproved}."
      },
      "isApprovedForAll(address,address)": {
        "details": "See {IERC721-isApprovedForAll}."
      },
      "name()": {
        "details": "See {IERC721Metadata-name}."
      },
      "owner()": {
        "details": "Returns the address of the current owner."
      },
      "ownerOf(uint256)": {
        "details": "See {IERC721-ownerOf}."
      },
      "renounceOwnership()": {
        "details": "Leaves the contract without owner. It will not be possible to call `onlyOwner` functions anymore. Can only be called by the current owner.      * NOTE: Renouncing ownership will leave the contract without an owner, thereby removing any functionality that is only available to the owner."
      },
      "requestRandomness(bytes32,uint256,uint256)": {
        "details": "The source of the seed data must be something which the oraclecannot anticipate. See \"SECURITY CONSIDERATIONS\" above. The fulfillRandomness method receives the output, once it's providedby the Oracle, and verified by the vrfCoordinator. The _keyHash must already be registered with the VRFCoordinator, andthe _fee must exceed the fee specified during registration of the_keyHash. The returned requestId can be used to distinguish responses to *concurrent requests. It is passed as the first argument tofulfillRandomness.",
        "params": {
          "_fee": "The amount of LINK to send with the request",
          "_keyHash": "ID of public key against which randomness is generated",
          "_seed": "Random seed from which output randomness is determined "
        },
        "returns": {
          "requestId": "which will be returned with the response to this request "
        }
      },
      "safeTransferFrom(address,address,uint256)": {
        "details": "See {IERC721-safeTransferFrom}."
      },
      "safeTransferFrom(address,address,uint256,bytes)": {
        "details": "See {IERC721-safeTransferFrom}."
      },
      "setApprovalForAll(address,bool)": {
        "details": "See {IERC721-setApprovalForAll}."
      },
      "supportsInterface(bytes4)": {
        "details": "See {IERC165-supportsInterface}.      * Time complexity O(1), guaranteed to always use less than 30 000 gas."
      },
      "symbol()": {
        "details": "See {IERC721Metadata-symbol}."
      },
      "tokenByIndex(uint256)": {
        "details": "See {IERC721Enumerable-tokenByIndex}."
      },
      "tokenOfOwnerByIndex(address,uint256)": {
        "details": "See {IERC721Enumerable-tokenOfOwnerByIndex}."
      },
      "tokenURI(uint256)": {
        "details": "See {IERC721Metadata-tokenURI}."
      },
      "totalSupply()": {
        "details": "See {IERC721Enumerable-totalSupply}."
      },
      "transferFrom(address,address,uint256)": {
        "details": "See {IERC721-transferFrom}."
      },
      "transferOwnership(address)": {
        "details": "Transfers ownership of the contract to a new account (`newOwner`). Can only be called by the current owner."
      }
    }
  },
  "userdoc": {
    "methods": {
      "constructor": "Constructor inherits VRFConsumerBase      * Network: Rinkeby Chainlink VRF Coordinator address: 0xb3dCcb4Cf7a26f6cf6B120Cf5A73875B7BBc655B LINK token address:                0x01BE23585060835E02B77ef475b0Cc51aA1e0709 Key Hash: 0x2ed0feb3e7fd2022120aa84fab1945545a9f2ffc9076fd6156fa96eaff4c1311",
      "requestRandomness(bytes32,uint256,uint256)": {
        "notice": "requestRandomness initiates a request for VRF output given _seed "
      }
    }
  }
}